:100000000C94B6030C94D3030C94D3030C94D30335
:100010000C94D3030C94D3030C94D3030C94D30308
:100020000C94D3030C94D3030C94882C0C945A2D69
:100030000C94F4220C94D3030C94D3030C94D303A8
:100040000C94D3030C94D3030C94D3030C94D303D8
:100050000C94D3030C945C230C94D3030C94D3031F
:100060000C94D3030C94D3030C94D3030C94D303B8
:100070000C94D3030C94D3030C94D3030C94D303A8
:100080000C94D3030C94D3030C94D3030C94D30398
:100090000C94D3030C94D3030C94D3030C94D30388
:1000A0000C94D3030C94D3030C94D30329042C0491
:1000B0002F043204350438043B0453085508600803
:1000C000570859085B085D085F08620864086608FD
:1000D000710868086A086C086E087008730863186D
:1000E000631895189518CC18EC18551AB31A2E19D0
:1000F000B31ADB19DB194C1AB31AB31AAD1AE81983
:10010000E819E819E819E819E819E819E819E819E7
:10011000E819E819E819E819E819E819E819F919C6
:10012000061A0D1A141A1E1A3E1B3E1B501B501B9A
:10013000471B501B501B501B3E1B3E1B4C1B501B98
:10014000501B4C1BCF26C526DD2636273D273D27D5
:1001500036273D273D27FE263D27082712273D2726
:100160003D273D273D2736273D273D2736273D277D
:10017000EB263D273D272227222722272227222739
:10018000222722272227222738273D27CF26C226AB
:100190003D273D273D273D273D273D273D273D273F
:1001A0003D273D2738273D273D2736273D27202758
:1001B0002027202720272027202720272027202707
:1001C0003827C72DEE2DE02EEE2DE02E3A2E5D2E97
:1001D000E02EB32EC22E2D002E0035003962E00035
:1001E00000001E00140004001D00E30065001F0055
:1001F0001A0016001B00E2002B0020000800070078
:10020000060051002C0021001500090019005200C1
:100210000000220017000A000500000001510251F1
:1002200000000000000F0000290002510000000043
:1002300000070000000023001C000B00110000005C
:100240000151240018000D00100050004900250045
:100250000C000E0036004F002A00260012000F008E
:100260003700E60028002700130033003800E700BD
:100270004C000000310034001255E400000035004D
:10028000000000000000E00000003A00000036021C
:100290000000E30000003B0000002F02000000040B
:1002A0002B003C0000002F00000000002C003D004F
:1002B000000026020000000035003E0000000000A3
:1002C000000000000100440001000000E200000006
:1002D0002900000000000000E600000065003F006B
:1002E00000000000000000000100400000002702A4
:1002F0000000000049004100000030000000000044
:100300002A004200000030020000000028004300E4
:1003100000003702000000004C0045000000000013
:100320000000000000000000000000000000E000ED
:1003300000000000000000000000E30000000000DA
:100340000000AC00A80000042B000000A900AE00D3
:10035000AA0051002C0000000000AB00AD005200CC
:100360003500000000000000000000000000010057
:100370000100000000000000290000000100000052
:100380000000000065000000000000000000000008
:1003900000000000000063002700500049005300E7
:1003A000240021001E004F002A00540025002200D6
:1003B0001F00001428005500260023002000000024
:1003C0004C005600570085006700E4000000000460
:1003D0007F3F1F643214643214783C1E1E140A05D9
:1003E0002223252628292A2C2D2F30323335363842
:1003F0003A3B3D3E4042434547494A4C4E5051539B
:100400005557595A5C5E6062646668696B6D6F71BE
:10041000737577797B7D7F81838587898A8C8E90C0
:10042000929496989A9C9E9FA1A3A5A7A8AAACAEC9
:10043000AFB1B3B4B6B8B9BBBCBEBFC1C2C3C5C609
:10044000C7C9CACBCCCDCED0D1D2D2D3D4D5D6D7B2
:10045000D7D8D9D9DADADBDBDBDCDCDCDCDCDDDDF0
:10046000DDDDDCDCDCDCDCDBDBDBDADAD9D9D8D7E0
:10047000D7D6D5D4D3D2D2D1D0CECDCCCBCAC9C782
:10048000C6C5C3C2C1BFBEBCBBB9B8B6B4B3B1AFB9
:10049000AEACAAA8A7A5A3A19F9E9C9A9896949259
:1004A000908E8C8A89878583817F7D7B7977757330
:1004B000716F6D6B6968666462605E5C5A5957550E
:1004C0005351504E4C4A4947454342403E3D3B3ACA
:1004D0003836353332302F2D2C2A29282625232251
:1004E000FFAA7F554000000000000000000000014E
:1004F00001010101010101010202020202020202E4
:1005000003030303030303040404040405050505AE
:10051000050606060606070707070808080809096A
:10052000090A0A0A0B0B0B0C0C0C0D0D0D0E0E0E0E
:100530000F0F101010111112121313141415151699
:10054000161717181819191A1A1B1C1C1D1D1E1F07
:100550001F20212122232324252526272828292A54
:100560002B2C2C2D2E2F3031313233343536373879
:10057000393A3B3C3D3E3F40414243444546474873
:10058000494B4C4D4E4F50525354555758595A5C45
:100590005D5E606163646567686A6B6C6E6F7172E3
:1005A000747677797A7C7D7F8182848687898B8D4A
:1005B0008E9092949597999B9D9FA1A2A4A6A8AA7C
:1005C000ACAEB0B2B4B6B9BBBDBFC1C3C5C8CACC6E
:1005D000CED0D3D5D7DADCDEE1E3E6E8EAEDEFF220
:1005E000F4F7F9FCFF040330000000160345007225
:1005F0000067006F0044006F007800200045005A3B
:1006000000000016034500720067006F0044006F91
:10061000007800200045005A000000040309040986
:10062000023B00020100A0FA0904000001030101DD
:100630000009211101000122400007058103080083
:100640000A09040100010300000009211101000151
:1006500022C0000705820320000A120110010000D9
:100660000008EDFE07130100010203010501090264
:10067000A10185020901A10005091901290515003B
:10068000250195057501810295017503810105011B
:10069000093009311581257F9502750881060938D1
:1006A0001581257F950175088106050C0A3802150C
:1006B00081257F950175088106C0C005010980A1CB
:1006C0000185031601002603001A81002A830075A4
:1006D0001095018100C0050C0901A10185041601D6
:1006E00000269C021A01002A9C02751095018100C7
:1006F000C005010906A1018505050719E029E715CF
:100700000025019508750181020508190129059543
:1007100005750191029501750391010507190029DD
:10072000EF1500250195F075018102C0050109064C
:10073000A101050719E029E71500250195087501B4
:1007400081029501750881010508190129059505A2
:10075000750191029501750391010507190029FFA3
:10076000150026FF00950675088100C011241FBEE4
:10077000CFEFDAE0DEBFCDBF12E0A0E0B1E0ECE801
:10078000F1E602C005900D92A030B107D9F723E041
:10079000A0E0B2E001C01D92A538B207E1F70E94C7
:1007A000AA290C94C4300C94000080B38C7080BBD8
:1007B00081B3836F81BB089584B1807F84B985B193
:1007C000807F85B98AB1837F8AB98BB1837F8BB9EA
:1007D0003E9846980895CF93E82F873080F5809112
:1007E000060190910701892B09F047C0CE2F64E6DE
:1007F00070E080E40E943305909307018093060126
:10080000892BD1F464E670E082E10E948A0590931E
:10081000070180930601892B79F481E090E001C003
:10082000880FCA95EAF764E670E080950E948A0511
:100830009093070180930601CF910C94DF0590E01F
:10084000FC013797E730F105C0F4EA5AFF4F0C94EA
:100850003C2F209A289811C0219A29980EC0229ADC
:100860002A980BC0239A2B9808C0529A5A9805C010
:10087000539A5B9802C03E9A4698CF910895CF93C1
:10088000873008F03FC08091060190910701892BC5
:1008900009F041C064E670E080E40E943305909363
:1008A000070180930601892B11F0C0E027C064E6A0
:1008B00070E083E10E948A0590930701809306010E
:1008C000892B99F764E670E081E40E9433059093E8
:1008D000070180930601892B41F784E690E00E948E
:1008E000BA0597FF05C09093070180930601DDCFFD
:1008F000C82FC09510920701109206010E94DF05D3
:100900008C2F0AC09FB18FB1807F8695869593709A
:10091000892B809501C080E0CF91089508950895B6
:100920000C948F040E94510690E0909307018093ED
:1009300006010E94DC030E94D503AFE0B2E0E1E0D3
:10094000F2E08EE08E0F11921D928E13FCCF8EE09E
:100950000E94600C0C949F070E94510690E09093B7
:100960000701809306010E94DC030E94D503E1E0A9
:10097000F2E08EE08E0F11928E13FDCF0895CF928C
:10098000DF92EF92FF920F931F93CF93DF938091AB
:10099000060190910701892B91F0809100028F5FF1
:1009A0008093000281110BC00E94510690E0909349
:1009B000070180930601892B11F40E94E3059FE053
:1009C000E92E92E0F92E06E112E0C0E0D12C87E09A
:1009D000C82ECC0E8C2F0E94EB038C2D0E94EB03B3
:1009E0008C2F0E943F04F7019081981719F08083A3
:1009F000D1E001C0D0E08C2D0E943F04F80190812D
:100A0000981719F0808381E001C080E0D82BDD2A9F
:100A10000E94DC03CF5FFFEFEF1AFF0A0F5F1F4F4B
:100A2000C730A9F62D2D4EE061E072E08FE092E034
:100A30000E94CC0C0E94A90781E0DF91CF911F9109
:100A40000F91FF90EF90DF90CF900895E82FF0E0A6
:100A5000EF5FFD4F8081089508951092B9008CE0FA
:100A60008093B8000895EF92FF920F931F93CF9356
:100A7000DF93182FEB011092BC0084EA8093BC0036
:100A80000E9426237C019091BC0097FD0EC0CF3FB1
:100A90008FEFD807C1F30E9426238E199F098C1768
:100AA0009D0788F38EEF9FEF2EC09091B900987F3D
:100AB000983041F09091B900987F903119F08FEF04
:100AC0009FEF21C01093BB0084E88093BC000E947C
:100AD00026238C019091BC0097FD0CC0CF3F8FEF77
:100AE000D807C1F30E942623801B910B8C179D070A
:100AF00088F3D8CF8091B900887F883111F0803495
:100B0000F1F680E090E0DF91CF911F910F91FF907F
:100B1000EF9008950F931F93CF93DF93EB01809392
:100B2000BB0084E88093BC000E9426238C01909136
:100B3000BC0097FD0EC0CF3F8FEFD807C1F30E94D6
:100B40002623801B910B8C179D0788F38EEF9FEF58
:100B50000CC02091B900287F81E090E0283211F488
:100B600080E090E0919581959109DF91CF911F915F
:100B70000F9108950F931F93CF93DF93EC0184E8B7
:100B80008093BC000E9426238C019091BC0097FDAD
:100B90000EC0CF3F8FEFD807C1F30E942623801BE2
:100BA000910B8C179D0788F38EEF9FEF03C0809108
:100BB000BB0090E0DF91CF911F910F91089584E9E0
:100BC0008093BC00089556985E9825982D98269895
:100BD0002E9827982F988FEF90E09093890080931C
:100BE000880090938B0080938A0090938D0080936F
:100BF0008C00259A2D9A2FEF80E792E021508040BB
:100C00009040E1F700C00000269A2E9A2FEF80E76F
:100C100092E0215080409040E1F700C00000279A08
:100C20002F9A2FEF80E792E0215080409040E1F72B
:100C300000C0000025982D982FEF80E792E021500A
:100C400080409040E1F700C0000026982E982FEFDA
:100C500080E792E0215080409040E1F700C0000022
:100C600027982F9856985E9825982D9826982E9814
:100C700027982F98089589EA8093800089E08093CF
:100C8000810024982C983F988AB18F7C8AB96E98FD
:100C9000479A8BB180638BB9769A0E94E3050C94D6
:100CA0008E0480E290E0909307018093060180918A
:100CB0001D0281110EC00E942D0581E080931D024E
:100CC0002FEF83ED90E3215080409040E1F700C08A
:100CD000000064E670E080E40E9433059093070111
:100CE00080930601892B09F04EC064E670E080E035
:100CF0000E948A059093070180930601892B09F0D1
:100D000042C064E670E080E00E948A05909307018B
:100D100080930601892BB9F564E670E08FE30E94A9
:100D20008A059093070180930601892B61F50E9443
:100D3000DF0564E670E080E40E94330590930701CC
:100D400080930601892BF9F464E670E08CE00E9440
:100D50008A059093070180930601892BA1F464E62C
:100D600070E080E00E948A0590930701809306015D
:100D7000892B49F464E670E08FE30E948A05909322
:100D80000701809306010E94DF0580910601089506
:100D90000F931F93CF93DF939C013A9521153F4109
:100DA00048F5EB018C0190FF03C080EEFB01099533
:100DB00011FF03C081EEFE01099512FF03C082EE10
:100DC000FE01099513FF03C083EEFE01099501158D
:100DD000104180F084EEFE01099585EEFE01099533
:100DE00086EEFE01099587EEFE01DF91CF911F91FE
:100DF0000F910994DF91CF911F910F910895877002
:100E000091E001C0990F8A95EAF7892F0E94FB2093
:100E10000C943421877091E001C0990F8A95EAF70C
:100E2000892F0E94FB200C943421877091E001C02F
:100E3000990F8A95EAF7892F0E9401210C94342199
:100E4000877091E001C0990F8A95EAF7892F0E9477
:100E500001210C943421CF93DF93EC01805E910942
:100E6000089710F0209719F46AE077E002C06FEF5E
:100E700076E0CE010E94C8068C2FDF91CF910C94B2
:100E80007816CF93DF93EC010E94B117CE01805EFC
:100E90009109089710F0209719F460E277E002C0FA
:100EA00065E177E0CE01DF91CF910C94C806CF9336
:100EB000DF93EC010E942B07CE01DF91CF910C94C0
:100EC000410781E0089581E008950C9463071F9322
:100ED000CF93DF9300D000D01F92CDB7DEB7498308
:100EE0005A832091550289819A81211112C066236B
:100EF00049F00E946520182F682F89819A810E94ED
:100F0000082003C00E943820182F69817A81812F20
:100F100004C00E94652069817A810F900F900F9024
:100F20000F900F90DF91CF911F910C94E109FC017C
:100F3000408151816281738184810C9467070E9492
:100F40009821811102C00E9412220E94220D0C944D
:100F50003B060C949004282F2F7041F0822F90E0D4
:100F60002A3010F44D9608950697089587E290E090
:100F7000089508950C94B9070C94BA0708950E9437
:100F80002E1B0E94BE072FEF84E39CE0215080407F
:100F90009040E1F700C000000C9482230F931F9350
:100FA000CF93DF938C010E949707EC01B8010E9458
:100FB0006507882309F4FBC1B801CE010E94960D94
:100FC000882309F4F4C1B801CE010E948414882357
:100FD00009F4EDC1CA3CFCE5DF0741F4F801828168
:100FE000882309F4E4C10E947E10E1C1CB3C8CE56A
:100FF000D80708F00FC1C33C9CE5D90761F4F8019C
:101000008281882309F4D3C10E94E5208272E1F035
:101010000E946712CCC1C43CECE5DE07C0F0C63CC0
:101020009CE5D90709F4C7C008F0D9C0C43CFCE569
:10103000DF0709F0C8C0F8018281882309F4B7C12D
:101040000E94E520827221F30E945A12B0C1C5317C
:10105000FCE5DF0708F078C0C2308CE5D80708F45B
:1010600052C0F8018281882309F454C00E9498215B
:10107000811102C00E9412220E94AB2190E0909345
:10108000730380937203FE01E350FC45E231F105E6
:1010900030F4E35AFF4F809172030C943C2F8091FF
:1010A0007203816027C0826025C0846023C0806194
:1010B00021C080621FC080641DC080681BC0846026
:1010C000886018C08E7F16C08D7F14C08B7F12C0C1
:1010D0008F7E10C08F7D0EC08F7B0CC08F770AC0B3
:1010E0008B7F877F07C087FB222720F991E092271B
:1010F00090FB87F980937203809172030E94AF2165
:101100000E942E1B54C1C1159CE5D90751F0C13076
:10111000DC4579F0C801DF91CF911F910F910C94BC
:101120006107F8018281882309F441C10E94BF0749
:101130003EC1F8018281882309F439C18091F4020B
:1011400081608093F40233C1C631FCE5DF0739F5D5
:101150000E94E520282FF8018281409116015091CC
:101160001701882379F02A7A91E009F490E09093AE
:101170001E02911102C069E201C065E3CA010E942A
:1011800079220AC080911E02811102C069E201C069
:1011900065E3CA010E9484220E94342108C1C23C36
:1011A000DC4509F0B7CFF8018281882309F4FFC03C
:1011B0000E947512FCC0F8018281882309F4F7C0EF
:1011C0000E944210F4C0C53CDC4509F0A3CFF801F1
:1011D0008281882309F4EBC00E943510E8C0F80131
:1011E0008281C83CFCE5DF0731F4882309F4DFC0C5
:1011F0000E946010DCC0C93CDC4530F4882309F44F
:10120000D6C00E945110D3C0882309F4D0C00E94D8
:101210006F10CDC0C13DECE5DE0791F4F80182818D
:10122000882309F4C4C00E94B20E8F3028F00E94B7
:10123000B20E843108F408CF8FE00E946A12B7C062
:10124000C23DFCE5DF0708F05AC0CD3C8CE5D8076D
:1012500039F4F8018281882309F4A9C081E0EDCF37
:10126000CE3C9CE5D907C0F4CB3CECE5DE0741F46D
:10127000F8018281882309F49AC00E94BA0E97C0AF
:10128000CC3CDC4509F046CFF8018281882309F483
:101290008EC00E94CB0E8BC0F8018281CF3CFCE552
:1012A000DF0771F4882309F482C00E94B20E8630F1
:1012B00028F00E94B20E883008F4C6CE86E0BDCF7A
:1012C000C03DDC4570F4882309F471C00E94B20E61
:1012D000823028F00E94B20E853008F4B5CE82E04C
:1012E000ACCF882309F463C00E94B20E893028F085
:1012F0000E94B20E8E3008F4A7CE89E09ECFC53D85
:10130000ECE5DE0739F4F8018281882309F44FC047
:1013100083E293CFC63DFCE5DF0740F5F80182810B
:10132000C33DFCE5DF0729F4882309F440C088E1C8
:1013300084CFC43DDC4568F48823C9F10E94B20E15
:10134000853128F00E94B20E873108F47DCE85E108
:1013500074CF882361F10E94B20E893128F00E9477
:10136000B20E823208F470CE89E167CFCD3DECE554
:10137000DE0741F4F80182818823C9F082E00E94EF
:101380004B2A15C0CE3DFCE5DF0739F4F801828118
:10139000882369F00E9412220AC0CC3DDC4509F086
:1013A000B9CEF8018281882311F080E0E8CF80E097
:1013B000DF91CF911F910F91089580E090E0089503
:1013C000089596E0799FF001112494E5899FE00D3E
:1013D000F11D1124E60FF11DEE0FFF1FEA52FE4F23
:1013E000859194910895880F991FFC01E253FC4F59
:1013F000859194910895CF93DF930E94E1090E9413
:10140000C00BEC01811520E59207F0F5811530E461
:10141000930708F029C1883E910500F5803E9105AB
:1014200008F0AAC1883A910570F4853A910508F050
:10143000A4C08130910509F49FC108F450C10497FC
:1014400008F09AC14CC18F3B910508F4A1C0803CC3
:10145000910508F444C1805C9109F9C0811540E20E
:10146000940758F4C11581E0D80708F085C1C03F42
:10147000D10508F434C1D0657FC1811520E39207FE
:1014800008F0E9C09F70E3C0811535E5930708F0C7
:1014900044C0811544E5940708F0FDC0C11582E5FC
:1014A000D80708F5C11521E5D20708F0E0C08C2F58
:1014B000837021E030E002C0220F331F8A95E2F7EB
:1014C0003C68CE0174E0969587957A95E1F7837034
:1014D000382BCF70C695C69540E2C49FE001112419
:1014E000C22BD32B49C12C2F26952695CE01837074
:1014F0009927C115D34508F0BFC040E2249F900151
:101500001124C1E0D0E002C0CC0FDD1F8A95E2F7C4
:101510002C2B3D2BE901DC682FC181154AE594078E
:10152000A0F4C11589E5D80708F0C4C0C11526E5A7
:10153000D20708F4B5C0C11538E5D30708F4CFC009
:10154000DC2FCC27C06FD06A17C181159B4508F4EA
:10155000C6C0C1158CE5D80708F4BEC0CE019056B0
:101560008115904208F0BBC08D2F8F710E943D0CF9
:10157000DD27D0628F71D82BFFC0853A910509F421
:10158000B1C0863A910509F0B0C0C2E8D0E4F4C019
:10159000883A910509F4ACC0893A910509F4ABC0C9
:1015A0008A3A910509F4AAC08B3A910509F4A9C0B9
:1015B0008C3A910509F4A8C08B3B910509F4A7C0AA
:1015C0008C3B910509F4A6C08D3A910509F4A5C09C
:1015D000803B910509F4A4C08E3A910509F4A3C09B
:1015E0008F3A910509F4A2C0813B910509F4A1C08D
:1015F000823B910509F4A0C0833B910509F49FC08B
:10160000843B910509F49EC0853B910509F49DC07A
:10161000863B910509F49CC0873B910509F49BC06A
:10162000883B910509F49AC0893B910509F499C05A
:101630008D3B910509F498C08E3B910509F497C044
:101640008A3B910509F496C0C0E0D4E495C00E949D
:10165000F309EC0191C09927D3FF03C0EC01D86CCA
:101660008BC0EC01D06C88C0DF70D06A85C0DC2FE5
:10167000CC27C16FD06A80C040E2249F9001112422
:10168000C1E0D0E002C0CC0FDD1F8A95E2F7C22B8B
:10169000D32BDA6871C0D82FCC27C46FD06A6CC046
:1016A0008C2F0E943D0C8F71C82FD0E0DC2FCC27EF
:1016B000D06262C08C2F8F700E943D0C94E0D69552
:1016C000C7959A95E1F7CF70D0E0DC2FCC27D06A90
:1016D0008F70806EC82B50C0DD27D0664DC0C0E033
:1016E000D0E04AC0C1E8D0E447C0C3E8D0E444C079
:1016F000C2EED4E441C0C9EED4E43EC0CAEED4E4A4
:101700003BC0C5EBD4E438C0C6EBD4E435C0C3EB72
:10171000D4E432C0C4EBD4E42FC0C7EBD4E42CC073
:10172000CCECD4E429C0CDECD4E426C0C3E8D5E4A5
:1017300023C0CAE8D5E420C0C2E9D5E41DC0C4E98D
:10174000D5E41AC0C1E2D6E417C0C3E2D6E414C09F
:10175000C4E2D6E411C0C5E2D6E40EC0C6E2D6E4C7
:101760000BC0C7E2D6E408C0CFE6D4E405C0C0E7AA
:10177000D4E402C0CAE2D6E4CE01DF91CF9108954D
:101780008238910549F1B0F48133910509F458C0CC
:1017900048F48932910509F44EC08A32910509F462
:1017A00054C008958533910509F440C089339105EB
:1017B00099F00895833E910529F138F4803E910512
:1017C00091F0823E9105A1F00895863E9105F9F0D1
:1017D000873E910531F108952091720320FD3AC0B2
:1017E00021FD38C008958091720380FD35C032C05C
:1017F0008091720382FF32C08091720384FD30C0F9
:1018000083EE39C08091720382FD28C0F5CF8091AC
:10181000720383FF27C08091720384FD21C087EE8D
:101820002AC08091720383FD1DC0F5CF80917203A1
:1018300085FD1AC01BC08091720385FD17C014C0BE
:101840008091720386FD14C015C08091720386FDDD
:1018500011C00EC080EE0FC089E30DC082EE0BC038
:1018600080E009C086EE07C089E205C085E303C0B9
:101870008AE201C081E390E008959091720392FFA3
:101880000DC0282F2871283019F4877F846006C086
:10189000282F2471243011F48B7F886093FF0DC0B2
:1018A000282F2871283119F4877E846106C0282FDB
:1018B0002471243111F48B7E886194FD877E089514
:1018C000CF93C82F90E00E94422F809320029093E4
:1018D0002102282FFC019BEF8E2F821B8C1710F406
:1018E0009193FACFCF9108950F931F93CF93DF93E6
:1018F00010921F0250912002E52FF091210240E04A
:10190000A62FB0E07BEFCAEFD0E09E2F951B981773
:10191000D0F490819B3FA9F0292F30E0691728F07F
:101920008D01021B130B980106C08E01021B130BC5
:1019300098012A0F3B1F2530310514F0708301C038
:1019400041E03196E2CF40931F02DF91CF911F918A
:101950000F910895CF93DF935091200230911F0291
:10196000DB01E52FF09121026E2F651B641778F4DF
:101970007C91EC016991CE01C081CB3F29F47617AF
:1019800019F020836C9331E031961196EDCF3093AE
:101990001F02DF91CF910895DF92EF92FF920F9394
:1019A0001F93CF93DF9300D0CDB7DEB78C017B01BF
:1019B000D22E4A830E9426236AEF70E00E94142FE1
:1019C000282F80911F024A818823D9F0622F842F0B
:1019D00029830E94740C29814A81DD2069F0B701B6
:1019E000C8010F900F90DF91CF911F910F91FF9041
:1019F000EF90DF900C94AA0C80911F02882379F35A
:101A000002C0D110ECCF0F900F90DF91CF911F91BA
:101A10000F91FF90EF90DF900895CF93DF9397FFA2
:101A20000DC0FB012281222349F0EC010E94380DF8
:101A3000CE019F770E94790D0E94620D81E0DF91B7
:101A4000CF9108958CE090E00E947C3090E0A0E07F
:101A5000B0E08093260390932703A0932803B093CC
:101A600029030895609126038CE090E00C94903057
:101A70000E94E52080932A030E94F820809126038B
:101A8000813071F048F0823081F08430A1F486EE2C
:101A90000E94191888E10DC082EE0E9478160BC0D2
:101AA00088E193E00E94570706C082EE0E947816F4
:101AB00087E50E9419188FE39CE90197F1F700C0B0
:101AC0000000089580912603813039F040F0823083
:101AD00031F0843051F488E206C08CE204C082EE1A
:101AE0000E94B11702C00E94191880912A030C9419
:101AF000F5200F931F93CF93DF938C01CCE0D0E0C0
:101B0000C8010C2E02C0969587950A94E2F78F7053
:101B10000E94AB070E9419182497CC3F8FEFD8077B
:101B200079F7DF91CF911F910F9108950F931F9334
:101B3000CF93DF93EC018B01FB018281882319F1A4
:101B4000C33EFCE5DF07C1F050F4C13EECE5DE0723
:101B500081F0C23EFCE5DF07B1F481E010C0C43E75
:101B60008CE5D80759F0C53EECE5DE0761F484E06A
:101B700006C01092260305C082E001C083E0809376
:101B800026030E94320DB801CE01DF91CF911F9143
:101B90000F910C940D0DCF92DF92EF92FF920F9365
:101BA0001F93CF93DF93D62E472FE82FF82F711175
:101BB00003C0682F782F7CC0072F10E0E82EF12C8F
:101BC00026E0629FC0011124CFEFD0E0BE010E9449
:101BD000142F9B015BEA5603C001579F900D1124FF
:101BE0008D0D911D8D0D911D982F990F980F6E01E0
:101BF000C01AD10AB701C69ED001C79EB00DD69EAD
:101C0000B00D11248B2F949FA0011124452F55272F
:101C10007E01E41AF50AE69EA001E79E500DF69EAD
:101C2000500D11246E01C91AD108C09E7001C19EC9
:101C3000F00CD09EF00C11240F2D1127C01BD10BDE
:101C4000C69F8001C79F100DD69F100D1124712FC4
:101C50002230310591F04CF421153105D9F02130B5
:101C60003105B1F47E2FE52F15C02430310561F028
:101C700044F02630310571F00BC0EB2F812F7F2F00
:101C800009C0752FEB2F02C0E12F7B2F8F2F02C0D1
:101C90007B2F852FF0E0EB51FB4F6491E72FF0E0B5
:101CA000EB51FB4F7491E82FF0E0EB51FB4F849127
:101CB000DF91CF911F910F91FF90EF90DF90CF9028
:101CC00008950895CF93DF93762FE901682F842F2D
:101CD0000E94CB0D698378838A83DF91CF91089529
:101CE00080912B03282F269530E02115310519F41A
:101CF0008170826005C02532310524F081708864CE
:101D000080932B03089588E090E00C948430CF9367
:101D1000DF9300D000D0CDB7DEB7AB01BC01498363
:101D20005A836B837C830E94700E49815A816B8138
:101D30007C8188E090E00F900F900F900F90DF91E2
:101D4000CF910C94A230EBE2F3E083E08083118228
:101D50008FEF82838383148260817181828193817A
:101D60000C94870E80912B0380FF02C08695089506
:101D700080E0089580912F03833018F48F5F809363
:101D80002F0360912B0370912C0380912D03909170
:101D90002E030C94870E80912F03882319F0815015
:101DA00080932F0360912B0370912C0380912D035E
:101DB00090912E030C94870E8091250224E0829F3F
:101DC000C0011124805D9C4F60910A0170E0209158
:101DD0002B0320FD0DC020E030E0F901E05DFC4F59
:101DE0001182108212822C5F3F4F2C333105A9F7EC
:101DF0000C94D51390912B0390FF0FC020E030E09E
:101E0000F901E05DFC4F8183608342832C5F3F4F8B
:101E10002C333105A9F70C94DC0E0895CF93DF9392
:101E200000D000D0CDB7DEB790912B0390FF0AC051
:101E30009E012F5F3F4F0E94620E4B8169818A8114
:101E40000E94FA0E0F900F900F900F90DF91CF919C
:101E50000895CF93DF93EC01EC81F0E0E052FC4F6A
:101E60004491EBE2F3E0628181810E940E0F8C814C
:101E70008F5F8C83DF91CF910895CF93DF93EC0137
:101E8000EBE2F3E0438162818C810E940E0F8C8132
:101E90008F5F8C83DF91CF9108950F931F93CF9322
:101EA000DF9300D000D0CDB7DEB78C018091220245
:101EB00081110AC09E012F5F3F4F4FEF6FEF0E94CD
:101EC000620E8A8180932202F8018481813051F070
:101ED00028F0823061F4409122020AC080912202EF
:101EE00040E007C06091220240E080E003C040E093
:101EF00080E060E00E94FA0EF801248130E0C90120
:101F0000019663E070E00E94282F84830F900F9069
:101F10000F900F90DF91CF911F910F9108955F92D5
:101F20006F927F928F929F92AF92BF92CF92DF92E9
:101F3000EF92FF920F931F93CF93DF9300D000D0C7
:101F4000CDB7DEB7182F762E042F622E90912B037B
:101F500090FF6DC0E92FE695AE2FB0E0A053BE4FC5
:101F60008C9180932D029E7F923061F49E012F5FB1
:101F70003F4F812F0E94620E4B8169818A810E94AE
:101F8000FA0E43C0823019F400912E033EC0863011
:101F900019F410912C0339C08930D9F38931A9F58E
:101FA000E9518E2F8170582EE695F0E0E052FB4FFC
:101FB000A590B49080E3C82E83E0D82EE12CF12CBC
:101FC000BB249FE0892E912CEA9CC001EB9C900DD4
:101FD000FA9C900D1124B4010E94142F812F5110EE
:101FE00002C0860F01C0861B9601402F672D0E94FC
:101FF000620E8FEFE81AF80A84E0C80ED11C8FE059
:10200000E816F10409F70E94DC0E10932C0370927D
:102010002D0300932E03662051F060912B037091E5
:102020002C0380912D0390912E030E94870E0F9018
:102030000F900F900F90DF91CF911F910F91FF9014
:10204000EF90DF90CF90BF90AF909F908F907F9058
:102050006F905F900895EBE2F3E09181282F438128
:1020600062818CE0890F0C948F0F81E00C942B100F
:10207000EBE2F3E09181282F4381628184EF890FA5
:102080000C948F0F81E00C943810EBE2F3E0628146
:102090002FEF620F08F46FEF282F438181810C949A
:1020A0008F0F81E00C944510EBE2F3E062812FEF9B
:1020B000621B08F460E0282F438181810C948F0F0C
:1020C00081E00C945410EBE2F3E043812CE0420FEA
:1020D00008F44FEF282F628181810C948F0F81E0EB
:1020E0000C946310EBE2F3E043812CE0421B08F414
:1020F00040E0282F628181810C948F0F81E00C9445
:10210000721020E00C948F0FEF92FF921F93CF93E9
:10211000DF93EC0180E3E82E83E0F82E10E08C8161
:10212000970140912E0360912D03810F0E94620E52
:102130001F5E84E0E80EF11C1F3F89F70E94DC0E51
:102140008A819C8180FF02C09F5F01C091509C8367
:10215000DF91CF911F91FF90EF900895AF92BF92C2
:10216000CF92DF92EF92FF920F931F93CF93DF9363
:10217000FC01828180FF03C0BB24BA9402C0BB244F
:10218000B39420E3E22E23E0F22E02E313E0C0E05A
:10219000D0E0F80131971082F7011082F801108227
:1021A00094E0C92ED12CA12C809124028A0D87FDA8
:1021B000815F082E000C990BC817D90791F4809104
:1021C0002E038C9DA0018D9D500D11245595479592
:1021D00055954795970160912D0380912C030E949E
:1021E000620EAB0CF1E0CF1AD108F1F6219684E033
:1021F000E80EF11C0C5F1F4FCF30D10551F60E9445
:10220000DC0E8091240291E0B91206C0811102C057
:102210008EE007C0815005C090E00196BE010E948B
:10222000282F80932402DF91CF911F910F91FF906F
:10223000EF90DF90CF90BF90AF9008950F931F93D2
:10224000CF93DF9380E090E0FC01E05DFC4F1182D2
:102250001082128204968C339105B1F7C0E0D0E071
:102260000FE010E0CE01B8010E94282FFC01809100
:102270002302082E000C990BEE0FFF1FEE0FFF1F1D
:10228000C817D907A4F080910901082E000C990BFA
:102290008C179D0764F09F01205D3C4F40912E03F9
:1022A00060912D0380912C030E94620E05C0E05DB9
:1022B000FC4F1182108212822196CF30D10591F607
:1022C0000E94DC0E8091080190912302980F909358
:1022D000230220910901280F20930901121614F4FA
:1022E0009E301CF0819580930801DF91CF911F9162
:1022F0000F910895EF92FF920F931F93CF93DF9367
:10230000EC012C813D812F5F3F4F217033273D83AE
:102310002C8380E3E82E83E0F82E10E005E5812F82
:1023200086954C815D81480F511D842F81709701E6
:1023300040912E0360912D03809F802D11240E94D7
:10234000620E1F5F84E0E80EF11C1F3041F7DF9141
:10235000CF911F910F91FF90EF900C94DC0EEF92B4
:10236000FF920F931F93CF93DF937C01C0E3D3E0E1
:1023700000E010E0F7018481073011051CF4882388
:1023800039F002C0811104C09E0140912E0302C0A9
:102390009E0140E060912D0380912C030E94620E0B
:1023A0000F5F1F4F24960F30110521F70E94DC0E9E
:1023B000F701248130E02F5F3F4F217033272483C2
:1023C000DF91CF911F910F91FF90EF900895EBE275
:1023D000F3E080818E7F808360817181828193812F
:1023E0000E94870E10922E022FEF80E792E021507C
:1023F00080409040E1F700C000000C94DC0E60913A
:102400002B03669570E04BE050E08BE091E00E947A
:102410006F30892B19F481E080932E020E942623CD
:102420009093270280932602089590912B0390FFAA
:1024300035C09170811102C0926006C0853210F0E3
:10244000986402C0880F982B90932B03662351F059
:1024500060912B0370912C0380912D0390912E039A
:102460000E94870E60912B03669570E04BE050E070
:102470008BE091E00E946F30892B19F010922E02B0
:1024800002C00E94FF1181E08093290240912E0337
:1024900060912D0380912C030C9481100895682F76
:1024A00090912B03969581E0890F853208F081E0A9
:1024B0000C94151281E00C944F12682F90912B030D
:1024C00096958FEF890F09F484E20C94151281E040
:1024D0000C945D1261E00C941512EBE2F3E0808144
:1024E0008160808386950C946A1280912B0380FD15
:1024F0000C94E7110C946D1260E00C94151280910D
:102500002C02811133C08091F40281608093F40227
:102510000E949821811104C00E9412220E94A30EE1
:102520000E94830E60932B0370932C0380932D03E2
:1025300090932E036E7F61F40E94A30E0E94830E7F
:1025400060932B0370932C0380932D0390932E03A1
:102550000E94700E10922E0280912B0380FF03C008
:1025600086950E947C1281E080932C0208950F933F
:102570001F93CF93DF9380912E02882309F48CC0A0
:1025800080912D02E0912B03E695E81BE093280251
:10259000823049F4F0E0E452FC4FE491CE2FD0E0D9
:1025A00009E21FE049C0863049F4F0E0E752FC4FF1
:1025B000E491CE2FD0E00DE31FE03EC0893051F40E
:1025C000E695F0E0EA52FC4FE491CE2FD0E004E82B
:1025D00010E132C08F3051F4E695F0E0ED52FC4F3F
:1025E000E491CE2FD0E00EEA10E126C0853149F407
:1025F000F0E0E053FC4FE491CE2FD0E00EE111E18A
:102600001BC0883181F0833239F4EEECF3E0C591E0
:10261000D4910DE41FE010C0843251F4C4EFD1E036
:102620000FEA11E109C0C8EED3E00AE711E104C0E6
:10263000C0EDD7E001E61EE080912902882389F0F1
:10264000109229020E9426239E0120953095820F28
:10265000931F909327028093260210922B021092D0
:102660002A0280912602909127020E9432238C1721
:102670009D0790F0E0912602F0912702CE0FDF1F18
:10268000D0932702C093260286E292E0F801DF9100
:10269000CF911F910F910994DF91CF911F910F91CD
:1026A0000895882319F05198599A02C0519A59985F
:1026B0005098589A95E09A95F1F70000509A5898DA
:1026C00095E09A95F1F70000882311F0519A5998F6
:1026D00085E08A95F1F7000008958BB18C7F8BB966
:1026E0005098589A5198599A85E08A95F1F70000C8
:1026F00008958AB18C7F8AB985E08A95F1F7000048
:10270000519A599885E08A95F1F70000509A5898A7
:1027100085E08A95F1F7000008955098589A85E071
:102720008A95F1F700005198599A85E08A95F1F75A
:1027300000000895CF93DF93D82FC8E08D2F8078C5
:102740000E945113DD0FC150C9F780E00E94511360
:1027500085E08A95F1F7000085E08A95F1F70000A1
:1027600080E0DF91CF9108952BB1342F3095232352
:102770003BB1432B3FB7F894FC01680F791FE61774
:10278000F70789F0819198E04BB9000000C087FFFE
:102790002BB9880F000000C000C000C02BB900C0DA
:1027A0009A9591F7ECCF3FBF0895AF92BF92CF9229
:1027B000DF92EF92FF920F931F93CF93DF938C01E1
:1027C000EB01CFB6D090BC00F8948091BC008B7F19
:1027D0008093BC000E946D130E94791384E80E94CC
:1027E0009A13CC0FDD1FCC0FDD1F78015801AC0E02
:1027F000BD1EEA14FB0431F0F70181917F010E94B4
:102800009A13F7CF0E948D13CFBED092BC00579A77
:1028100040E8BE01C801DF91CF911F910F91FF9059
:10282000EF90DF90CF90BF90AF900C94B4130F93C4
:102830001F93CF93DF93C62FD42F022FFC018281E9
:102840008823C9F0609331020E94262390933002BE
:1028500080932F0280E28C0F883008F050C0C77040
:1028600081E001C0880FCA95EAF7DF91CF911F91EF
:102870000F910C94211810913102161330C08091E1
:102880002F02909130020E943223883C910538F546
:10289000C0E2CD0F1D17B9F080E2810F883040F4FF
:1028A000177081E001C0880F1A95EAF70E94281876
:1028B000C83048F481E09D2F977001C0880F9A9529
:1028C000EAF70E942118802F0E941918C830B8F426
:1028D000D77081E001C0880FDA95EAF70AC080E27C
:1028E0008C0F883060F4C77081E001C0880FCA95F2
:1028F000EAF7DF91CF911F910F910C942818DF9187
:10290000CF911F910F9108959C01CB01203F4CE581
:10291000340719F178F4283D4CE53407B9F0293D26
:102920004CE5340731F1273D3C4531F526E241EED7
:1029300061EE0FC0223F4CE53407B9F090F0233F21
:102940003C45D1F427E246EE66EE03C027E245EEB1
:1029500065EE0E94171480E0089526E240EE60EED6
:10296000F8CF27E244EE64EEF4CF26E242EE62EEC8
:10297000F0CF28E241E0ECCF1092310281E00895DF
:1029800090933702809336020895E0913602F091D9
:102990003702309721F00190F081E02D099480E01A
:1029A0000895E0913602F0913702309799F0209126
:1029B0002701222359F02091720327FF07C0DC0171
:1029C0002C9111962C93119725E02C930280F38182
:1029D000E02D09940895E0913602F0913702309786
:1029E00039F022E0DC012C930480F581E02D09947C
:1029F000089520913402309135028217930771F0C7
:102A00009093350280933402E0913602F0913702C0
:102A1000309721F00680F781E02D099408952091E8
:102A20003202309133028217930771F09093330290
:102A300080933202E0913602F0913702309721F014
:102A40000084F185E02D0994089585B7806885BFDD
:102A500085B7806885BF0895089508950C942D1555
:102A600008950C9430150E9425150E942C150C9485
:102A70002E1581E008950E941D230E9492040E9459
:102A8000B4230E947F120C943115CF92DF92EF9203
:102A9000FF920F931F93CF93DF93CDB7DEB72B97A2
:102AA0000FB6F894DEBF0FBECDBF0E94BF040E94D8
:102AB0003915811111C08FEF89838A831B820E948F
:102AC00026238160782F9D838C8349815A816B8175
:102AD0008D810E94291656C089E3C82E82E0D82E27
:102AE00000E010E0E02E802F0E942605F6014191C3
:102AF0006F01F42EF82631F40F5F1F4F0E301105D1
:102B000089F7D9CF9091F40291FF04C08B870E947E
:102B10002C058B8520E030E04F2D50E0922FBA013C
:102B2000022E02C0759567950A94E2F760FF24C0F3
:102B30002E83EF8221E030E0690102C0CC0CDD1C65
:102B40009A95E2F790E08C219D21892B09F420E0F1
:102B500028870E9426238160782F9A8789874E8153
:102B60005F8168858A850E942916F801E75CFD4F20
:102B70008081C826C08206C02F5F3F4F26303105B6
:102B800069F6BACF0E944725109138020E94C514F9
:102B90001817A1F00E94C514809338022B960FB627
:102BA000F894DEBF0FBECDBFDF91CF911F910F9183
:102BB000FF90EF90DF90CF900C94BC072B960FB650
:102BC000F894DEBF0FBECDBFDF91CF911F910F9163
:102BD000FF90EF90DF90CF900895DC0111962C913B
:102BE00011978C91682F70E041E050E001C0440FD4
:102BF0008A95EAF712968C91129730E0882329F093
:102C0000809157028823E9F006C0F901E95BFD4F86
:102C100090819423B1F086E0829FF001839FF00DB4
:102C20001124E60FF71FEE0FFF1FE85DFE4F8081B6
:102C300091818D939C93F901E95BFD4F8081482B35
:102C400006C0F901E95BFD4F409580814823408330
:102C50000895CF93DF93CDB7DEB72B970FB6F894D7
:102C6000DEBF0FBECDBF942F4F83252F58876987B6
:102C70007A878B874A855B85452B21F02F3F09F5A5
:102C80009F3FF9F4DE01119686E0FD0111928A95CD
:102C9000E9F785E0FE01379601900D928A95E1F7FC
:102CA00049815A816B817C818D819E810E94D81DD2
:102CB0002B960FB6F894DEBF0FBECDBFDF91CF913C
:102CC0000895CE0107960E94ED15DCCFFC018081AE
:102CD00091810E94A62092959F70963041F4809138
:102CE000570291E0892780935702909356020895E6
:102CF000CF93DF931F92CDB7DEB7882309F42DC1A0
:102D0000682F8238C1F40E94C51481FD26C169E391
:102D100080911601909117010E9479220E9434211E
:102D20002FEF81EE94E0215080409040E1F700C009
:102D3000000069E319C0833811F50E94C51480FDB5
:102D40000CC163E580911601909117010E947922D0
:102D50000E9434212FEF81EE94E02150804090407A
:102D6000E1F700C0000063E5809116019091170122
:102D70000E9484220F90DF91CF910C9434218438EB
:102D8000C1F40E94C51482FDE8C067E48091160179
:102D9000909117010E9479220E9434212FEF81EE39
:102DA00094E0215080409040E1F700C0000067E4CB
:102DB000DBCF8CEF860F813A70F4862F69830E94F7
:102DC000502769818111C9C0809116019091170126
:102DD0000E947922CFCF80E2860F883048F4677056
:102DE00081E001C0880F6A95EAF70E94E820C2CF0F
:102DF0008BE5860F833088F4653A29F0663A31F026
:102E000083E890E005C081E890E002C082E890E0AD
:102E10000F90DF91CF910C94F91488E5860F8731DC
:102E200008F091C0683A09F445C0693A09F445C010
:102E30006A3A09F445C06B3A09F445C06C3A09F4A2
:102E400045C06B3B09F445C06C3B09F445C06D3A85
:102E500009F445C0603B09F445C06E3A09F445C029
:102E60006F3A09F445C0613B09F445C0623B09F47F
:102E700045C0633B09F445C0643B09F445C0653B6C
:102E800009F445C0663B09F445C0673B09F445C0F9
:102E9000683B09F445C0693B09F445C06D3B09F442
:102EA00045C06E3B09F445C06A3B09F445C080E06B
:102EB00090E044C082EE90E041C089EE90E03EC0D8
:102EC0008AEE90E03BC085EB90E038C086EB90E066
:102ED00035C083EB90E032C084EB90E02FC087EBED
:102EE00090E02CC08CEC90E029C08DEC90E026C0E6
:102EF00083E891E023C08AE891E020C082E991E074
:102F00001DC084E991E01AC081E292E017C083E21B
:102F100092E014C084E292E011C085E292E00EC01B
:102F200086E292E00BC087E292E008C08FE690E074
:102F300005C080E790E002C08AE292E00F90DF9146
:102F4000CF910C940F15603F40F0862F0E944F24C4
:102F50000F90DF91CF910C943C250F90DF91CF9192
:102F60000895882309F464C0823879F40E94C51456
:102F700081FF5EC069E380911601909117010E9464
:102F800079220E94342169E310C08338B1F40E9491
:102F9000C51480FF4DC063E5809116019091170123
:102FA0000E9479220E94342163E58091160190915C
:102FB00017010E9484220C943421843879F40E94F1
:102FC000C51482FF35C067E4809116019091170106
:102FD0000E9479220E94342167E4E7CF9CEF980F8A
:102FE000913A10F4682FE1CF90E2980F983050F4A6
:102FF000877091E001C0990F8A95EAF7892F0E94A6
:10300000EE20D9CF9BE5980F933020F480E090E03C
:103010000C94F91498E5980F973120F480E090E033
:103020000C940F15803F20F00E94B7240C943C258F
:103030000895CF93C82F0E9478168C2FCF910C94AF
:10304000B117882321F00E94E8200C9434210895C0
:10305000882321F00E94EE200C94342108958F9251
:103060009F92AF92BF92DF92EF92FF920F931F93C6
:10307000CF93DF937C01D62FC72FFC0105810295EA
:103080000F70128111110E9408210E94DE208823F6
:1030900079F0112369F080E28D0F883048F082E0EA
:1030A0000E947F210E94DE2091E0D82ED92601C007
:1030B000D12CAC2EA2948FE0A822B12CF501E159BD
:1030C000FF4F0C943C2F8C2F807FCF70882311F002
:1030D000C295C07F112399F0CC2309F4C8C180E2C6
:1030E0008D0F883010F0D11104C08C2F0E94E82081
:1030F00003C08C2F0E94FB200E943421B8C18D2F69
:103100000E94B117CC2309F42EC280E28D0F8830C3
:1031100010F0D11104C08C2F0E94EE2003C08C2F20
:103120000E9401210E9434211EC28C2F807FCF700B
:10313000803211F0C295C07FDD2319F0D130C9F083
:1031400021C0112371F0002341F0013031F40E94BD
:103150001B218C2B0E94212106C20E941B218C2B3B
:103160003FC1002319F0013009F4FDC10E942A215A
:1031700011C0112321F0023008F0F5C107C0011180
:10318000F2C108C0112321F0011171C18C2F28C197
:1031900001117EC18C2F2AC18C2F86958695837054
:1031A00090E0009719F0019761F0DDC1112321F043
:1031B0008D2F9C2F937002C080E090E00E94F91444
:1031C000E2C1112321F08D2F9C2F937002C080E06B
:1031D00090E00E940F15D7C11123F9F0D53F51F0AF
:1031E000D63F71F0D43FA9F480916C0390916D03A8
:1031F00081600BC080916C0390916D03826005C06B
:1032000080916C0390916D03846090936D03809323
:103210006C038D2F0E944F241EC0D53F51F0D63F26
:1032200071F0D43FA9F480916C0390916D038E7F6F
:103230000BC080916C0390916D038D7F05C08091D0
:103240006C0390916D038B7F90936D0380936C035F
:103250008D2F0E94B7240E943C2595C18C2F83702E
:1032600009F050C011118BC18D2F82958695877002
:10327000880F880F9D2F9F70892E912CA12CB12C27
:10328000082E04C0880C991CAA1CBB1C0A94D2F7F7
:10329000D4FF14C00FE010E020E030E0B901A80135
:1032A00004C0440F551F661F771F8A95D2F7CB01C4
:1032B000BA01609570958095909503C060E070E0CC
:1032C000CB01C695C695C370D0E0C230D10561F080
:1032D000C330D10581F0682979298A299B29219752
:1032E00071F00E941D1F4BC1682979298A299B29E9
:1032F0000E942F1F44C10E941D1FC501B4010E94DE
:103300000B1F3DC1112319F08C2F817001C08695D0
:10331000882309F434C18D2F829586958770880F94
:10332000880F9D2F9F70892E912CA12CB12C082ED7
:1033300004C0880C991CAA1CBB1C0A94D2F7D4FFA9
:1033400014C00FE010E020E030E0B901A80104C093
:10335000440F551F661F771F8A95D2F7CB01BA011C
:10336000609570958095909503C060E070E0CB010A
:10337000C695C695C3704C2F50E04230510569F098
:103380004330510589F0682979298A299B294130E0
:10339000510571F00E94E31FF2C0682979298A293A
:1033A0009B290E94F51FEBC00E94E31FC501B401D9
:1033B0000E94D11FE4C08D2F90E0FC01E05EF10976
:1033C000E531F10508F04FC0E158FF4F0C943C2F58
:1033D000DF708C2F8F71112331F00E946A1F8D2FA7
:1033E0000E942118C0C00E948B1F8D2F0E94281898
:1033F000BAC0112339F00111B6C08C2F8F710E9411
:10340000B01FB1C0023008F0AEC0F7CF112339F0C1
:103410008C2F8F710E946A1FA6C01123C9F38C2FB5
:103420008F710E948B1F9FC0112329F08C2F8F71E9
:103430000E94551F98C00E94501F95C0112349F04B
:10344000CF718C2F0E946A1F63E08C2F0E946A212B
:103450008AC081E00E947F21023008F484C082E0AB
:103460000E947F2180C0112331F0002389F28D2F2B
:103470000E94781678C0002391F2D93349F45FEFA7
:1034800067EE73E0515060407040E1F700C000000B
:103490008D2F0E94B11767C04C2F4F706D2FC70141
:1034A0000E94DD090E947C1E6EC0D23FB1F028F45C
:1034B000D03F49F0D13FF9F028C0D43FB9F058F0DF
:1034C000D53F71F022C0112309F447C090915702F3
:1034D00081E0892708C081E01827109357023DC07A
:1034E00011113BC081E08093570237C0111135C0E4
:1034F0001092570232C0112329F08091560288237E
:1035000029F329C0002311F328C08091560200231B
:10351000C1F0882341F09091570281E08927809380
:103520005702109256028D2F112319F00E9478161F
:1035300014C00E94B11786E0F70111928A95E9F74D
:103540000CC0882351F0111108C09091570281E0FE
:10355000892780935702109256024C2F4F706D2F7F
:10356000C7010E94E009F8E0AF16B10441F05CF039
:103570004AE0A41AB10852E0A516B10420F40E9452
:10358000C5140E94BC07DD20E1F00E94DA2080FD16
:1035900018C0F70112820E94D4200E946A1FC7013E
:1035A0000E94ED1A0E94D420DF91CF911F910F91BC
:1035B000FF90EF90DF90BF90AF909F908F900C9412
:1035C0008B1FDF91CF911F910F91FF90EF90DF90B4
:1035D000BF90AF909F908F9008950F931F93CF93BC
:1035E000DF93EC01888199812B813C81232BB9F0F9
:1035F0009F3F11F48F3F99F0CE010E94CE078823A0
:1036000071F0688179818A810E94B1208C010E94C9
:1036100007200E94081FB801CE010E942F18DF91D9
:10362000CF911F910F9108950E9408210E941821A7
:103630000E9434210E94E2250E943C2580E090E017
:103640000E94F91480E090E00C940F15809116010F
:10365000909117010E948F220C94141B0E94F82055
:103660000C94261BE92FE295EF70F0E03297EE30D4
:10367000F105B0F4EC56FF4F0C943C2F803F91F0D5
:1036800018F4803E68F40EC0843F51F40BC0803EB5
:1036900048F0813F29F406C093FB882780F90895FC
:1036A00080E0089581E008950E94A6200E94321BC8
:1036B0000895CF93DF9300D000D01F92CDB7DEB72F
:1036C0000F900F900F900F900F90DF91CF91089572
:1036D000CF93DF9300D000D000D0CDB7DEB72696D1
:1036E0000FB6F894DEBF0FBECDBFDF91CF91089526
:1036F0001F93CF93DF93C091580216E08091590237
:10370000C81799F0D0E01C9FF0011D9FF00D112407
:10371000E65AFD4F40815181628173818481958198
:103720000E94681B2196C770E9CFDF91CF911F914E
:10373000089540918A0250918B0260918C027091A1
:103740008D0280918E0290918F020C94681B809163
:103750008F0282958F7009F054C080918C0288236B
:1037600009F44FC080915802A091590260918A02D9
:1037700070918B0240918D0250918E02B6E08A17B3
:1037800009F43FC090E041155105C1F17F3F11F4AC
:103790006F3FA1F1B89FF001B99FF00D1124E65AD7
:1037A000FD4F218172132AC02081621327C022811C
:1037B000211124C0238134812417350710F42150AE
:1037C0003109241B350B283C3105C0F420918F02B0
:1037D0002F70206120938F0226E0289FF001299FFF
:1037E000F00D1124E15AFD4F80818F70806180833C
:1037F0008AE892E00E94ED1A0C94781B019687707B
:10380000BECF0895CF92DF92EF92FF920F931F9356
:10381000CF93DF93CDB7DEB762970FB6F894DEBFD4
:103820000FBECDBF8C0185E0F801DE011D96019031
:103830000D928A95E1F7D8014C9111965C91119700
:1038400012966C9112971396CD90DC90149730914C
:103850008A0270918B0280918D0290918E02009766
:1038600009F46BC17F3F19F43F3F09F466C1E09052
:103870008C02EE2009F4C0C020918F02C816D90630
:1038800028F0F601E81BF90BCF0104C08095909554
:103890008C0D9D1DFF24F394883C910578F0F12C4C
:1038A000207F09F0C6C07C2DD98AC88A89890E94E8
:1038B000591B8AE892E00E94ED1AB1C0822F807FE6
:1038C00009F046C0751314C0341312C0611110C042
:1038D0002F70206120938F020E94991B8AE892E04A
:1038E0000E94ED1A80918F02D80115968C932EC0FC
:1038F000CD2819F15F3F11F44F3FF9F0F62E611119
:103900001CC0809158022091590236E0821709F4B8
:103910005AC090E0389FF001399FF00D1124E65A0B
:10392000FD4F7181571306C07081471303C0728128
:10393000711103C001968770E9CFF62E662309F452
:1039400027C180918F02816080938F02F12C20C16A
:10395000751308C0341306C0611104C080918F0232
:10396000D801C3C04D875E878D859E856A8B0E9476
:10397000541B6A898823E1F16623D1F120918F02DB
:10398000822F82958F7090E0029774F080918A0266
:1039900090918B0298878F831986DB86CA862C8745
:1039A000CE0107960E94ED1A86E0F801AAE8B2E07F
:1039B00001900D928A95E1F70E94A71B0E94991B26
:1039C000FF24F394E5C04D875E878D859E850E9418
:1039D000A620292F22952F7030E0223031050CF0DF
:1039E000CBC09F7009F0C5C0805E883008F4D0C09D
:1039F000C8010E94ED1AE4CFC816D90608F453C0D6
:103A0000F601E81BF90BCF01883C910508F450C082
:103A1000F12C7C2DD98AC88A89890E94591BEAE831
:103A2000F2E086E0DF011D928A95E9F70E94991B7A
:103A3000AFC0751314C0341312C0611110C080914F
:103A40008F02F8018583C8010E94ED1A86E0EAE83A
:103A5000F2E0DF011D928A95E9F7FE2C99C04D87AF
:103A60005E878D859E856A8B0E94541B6A89882398
:103A700009F4BECF662309F4BBCF20918F02822FB9
:103A800082958F7090E002970CF48ECF80918A021D
:103A900090918B029A8389831B82DD82CC822E8354
:103AA000CE0101967FCF809590958C0D9D1DACCF5A
:103AB000F62E662309F49CCF75132EC034132CC048
:103AC00020918F0220FD1FC0822F82958F70D9F028
:103AD000D80115962C9315978F3049F08F5F982F4A
:103AE0009295907F822F8F70892B15968C93C801A9
:103AF0000E94ED1A86E0F801AAE8B2E001900D926A
:103B00008A95E1F793CF86E0F801AAE8B2E0019048
:103B10000D928A95E1F73CC04D875E878D859E8525
:103B20000E94541B811140CF80918F02816080934D
:103B30008F02C8010E94ED1A2BC0662309F458CFEA
:103B40004D875E878D859E850E94541BF82E8823A5
:103B500009F44ECF86E0F801AAE8B2E001900D9298
:103B60008A95E1F78AE892E00E9466160E94A71BF8
:103B70005DCF811139CF0CC0243031050CF038CF26
:103B80009F7009F431CFF8019581907F09F02CCF17
:103B90008F2D62960FB6F894DEBF0FBECDBFDF91BA
:103BA000CF911F910F91FF90EF90DF90CF900895EC
:103BB0001F93CF93DF93CDB7DEB72C970FB6F89452
:103BC000DEBF0FBECDBF4F83588769877A878B874B
:103BD0009C87CE0107960E94021C882369F08F8182
:103BE00098852A853B85232BF1F19F3F09F063C01F
:103BF0008F3F09F060C037C086E0FE013796DE01D6
:103C0000119601900D928A95E1F76F817885EA858A
:103C1000FB85309741F17F3F11F46F3F21F12091F7
:103C2000590230E0C90101968770992740915802E6
:103C300050E08417950709F447C069837A83FD83B0
:103C4000EC8396E0929FD001939FB00D1124A65A69
:103C5000BD4FFE01319601900D929A95E1F7809348
:103C600059020E94781B16E08091580290915902E7
:103C70008917C1F1189FC0011124865A9D4F0E94D7
:103C8000021C882379F1E09158021E9FF001112453
:103C9000E65AFD4F40815181628173818481958113
:103CA0000E94681B8091580290E0019687709927C6
:103CB00080935802D9CF4F81588569857A858B8545
:103CC0009C850E94681BCFCF0E942E1B1092590228
:103CD00010925802EAE8F2E086E0DF011D928A9530
:103CE000E9F7C1CF2C960FB6F894DEBF0FBECDBF5B
:103CF000DF91CF911F910895EF92FF920F931F9341
:103D0000CF93DF938C01892B09F46CC0F12CEE2446
:103D1000E394E8012196F8018491843740F48430DB
:103D200008F051C0813081F0823019F15BC08537D5
:103D300009F444C0A8F19CE7980F903708F052C0EE
:103D40008F770E94B11741C00E5F1F4FFE01C491D3
:103D500080E28C0F883048F4C7708E2D01C0880F28
:103D6000CA95EAF70E940B2114C08C2F0E94781686
:103D70002DC00E5F1F4FFE01C49180E28C0F883072
:103D800058F4C7708E2D01C0880FCA95EAF70E94BB
:103D900011210E9434211AC08C2F0E94B11716C025
:103DA0000E5F1F4FFE01C491CC2381F08FE99FE08D
:103DB0000197F1F700C00000C150F6CF0E5F1F4F12
:103DC000FE01F49003C00E9478168E018F2D882387
:103DD00009F49FCFEFE9FFE03197F1F700C0000051
:103DE0008150F5CFDF91CF911F910F91FF90EF9010
:103DF000089508950C94F91E0E94FA1E6093CB0258
:103E00007093CC028093CD029093CE020C94141B3D
:103E100008950C94FC1E0F931F930091CB021091F8
:103E2000CC022091CD023091CE02602B712B822BDF
:103E3000932B1F910F910C94FC1E0F931F930091D5
:103E4000CB021091CC022091CD023091CE026023A2
:103E50007123822393231F910F910C94FC1E0F93C7
:103E60001F930091CB021091CC022091CD02309192
:103E7000CE0260277127822793271F910F910C9400
:103E8000FC1E08950C94411F0E94421F6093C702BC
:103E90007093C8028093C9029093CA020C94141BB9
:103EA00060E070E0CB010C94441F0F931F9341E03E
:103EB00050E060E070E08A019B0104C0000F111F18
:103EC000221F331F8A95D2F7C901B8011F910F91A4
:103ED0000C94441F0F931F9341E050E060E070E0AA
:103EE00004C0440F551F661F771F8A95D2F7809133
:103EF000C7029091C802A091C902B091CA028A017A
:103F00009B01082B192B2A2B3B2BC901B8011F91B0
:103F10000F910C94441F0F931F9341E050E060E019
:103F200070E004C0440F551F661F771F8A95D2F7B3
:103F300040955095609570958091C7029091C80208
:103F4000A091C902B091CA028A019B0108231923DA
:103F50002A233B23C901B8011F910F910C94441FE0
:103F60000F931F9341E050E060E070E004C0440F05
:103F7000551F661F771F8A95D2F78091C7029091CF
:103F8000C802A091C902B091CA028A019B01082708
:103F900019272A273B27C901B8011F910F910C94BB
:103FA000441F0F931F930091C7021091C8022091E4
:103FB000C9023091CA02602B712B822B932B1F9167
:103FC0000F910C94441F0F931F930091C7021091FF
:103FD000C8022091C9023091CA0260237123822352
:103FE00093231F910F910C94441F0F931F930091E3
:103FF000C7021091C8022091C9023091CA026027FD
:104000007127822793271F910F910C94441F0895C5
:10401000292F220F920F990F890FA82FA695A695E9
:10402000A695877051E001C0550F8A95EAF785E0A3
:10403000A89FD001112420E030E070E0F901EA0FE0
:10404000FB1FE057FD4F4081CB01022E02C0969529
:1040500087950A94E2F781709927819584278523B3
:10406000842780832F5F3F4F2530310539F708952E
:10407000292F220F920F990F890F682F6695669549
:104080006695982F977085E0689FB001112440E0F5
:1040900050E080E0FA01E60FF71FE057FD4F208166
:1040A00030E0092E02C0369527950A94E2F7217078
:1040B0003327042E01C0220F0A94EAF7822B4F5FA8
:1040C0005F4F4530510531F70895BF92CF92DF928F
:1040D000EF92FF920F931F93CF93DF938C01C090C9
:1040E000CB02D090CC02E090CD02F090CE02809135
:1040F000C7029091C802A091C902B091CA02C82A11
:10410000D92AEA2AFB2ACFE1D0E0D701C6010C2E3A
:1041100004C0B695A795979587950A94D2F780FF26
:1041200007C0BC2EB8018C2F0E94FB09019719F41F
:10413000219758F7B12C8B2DDF91CF911F910F91C3
:10414000FF90EF90DF90CF90BF900895CF93DF93D3
:10415000EC010E946520BE010E94FB09DF91CF9116
:1041600008951F93CF93DF93EB019091550299230C
:1041700021F0CB010E94A62013C0882349F0CB0177
:104180000E946520182F682FCE010E94082004C0CD
:10419000CB010E943820182FBE01812F0E94FB09FD
:1041A000DF91CF911F9108958091CF0285958595DC
:1041B000859508958091CF02877008959091CF02E0
:1041C000977081E009F480E008958091F3020895EA
:1041D0009091F302892B8093F3020895809590913A
:1041E000F30289238093F30208958093F3020895E4
:1041F0001092F30208959091F202892B8093F202BB
:10420000089580959091F20289238093F202089597
:104210001092F20208959091F102892B8093F1029D
:10422000089580959091F10289238093F102089579
:104230001092F10208958091D002089508950C948F
:104240001E219091D002981721F08093D0020C94F7
:104250001F2108958091D002882329F01092D00266
:1042600080E00C941F210895E0911601F091170150
:104270008091F3028083E0911601F0911701908103
:104280008091F202892B8083E0911601F091170151
:1042900090818091F102892B80838091D0028823C4
:1042A00081F0E0911601F09117019081892B8083B4
:1042B00080911601909117010E94142281110E9491
:1042C0002A2180911601909117010C94D114089520
:1042D0000C94672198E0899F90011124262B20934C
:1042E000CF020E946A1F8091CF02859585958595A2
:1042F0000C9468211092CF0280E00C9468212091E8
:10430000CF02809582238093CF02982F977079F403
:1043100030E0482F082E000C550B2417350739F0D4
:104320008595859585950E948B1F0C947A2108951B
:1043300080E090E00E948A3021E08D3E9E4F09F09F
:1043400020E0822F089582E090E00C947C3083E09E
:1043500090E00C947C3084E090E00C947C30682FEA
:1043600084E090E00C949030AB01BC018FE090E0D1
:104370000C94A230AB01BC0183E190E00C94A2301C
:1043800060E070E0CB010C94BA2160E070E0CB01FA
:104390000E94B4210C94C0216DEE7EEF80E090E08D
:1043A0000E94AE3060E082E090E00E94903060E0D9
:1043B00083E090E00E9490301092CB021092CC02E9
:1043C0001092CD021092CE0260E084E090E00E9454
:1043D000903060E085E090E00E94903060E086E000
:1043E00090E00E9490306FEF87E090E00E94903064
:1043F00040E050E0BA0188E090E00E94A23060E026
:104400008DE090E00E94903040E050E0BA0188E1F9
:1044100090E00E94A23060E087E190E00E9490303E
:104420000C94C5210C94CC21FC013296809127017B
:10443000882331F08091720387FF02C09EE101C0A2
:1044400096E080E0915028F021912223D9F38F5FEC
:10445000F9CF08959C01FC0132969FEF80E04191D5
:10446000461789F09F3F19F4411101C0982F8F5FC3
:104470008630A9F79F3F39F0F901E90FF11D97FD4B
:10448000FA95628308950895FC013296089620817A
:10449000261301C010823196E817F907C1F7089575
:1044A000262F2695269526952E3168F4FC01E20FDD
:1044B000F11D677021E030E001C0220F6A95EAF734
:1044C0008281282B22830895262F269526952695CE
:1044D0002E3170F4FC01E20FF11D677021E030E035
:1044E00001C0220F6A95EAF7209582812823228352
:1044F000089520912701222329F02091720327FD9E
:104500000C9450220C942A2220912701222329F076
:104510002091720327FD0C9464220C944422209174
:104520002701FC013296222331F08091720387FF2C
:1045300002C08EE101C086E0DF011D928A95E9F795
:10454000089508950C94A1220E94A22280917803DC
:10455000843049F11092F50220E488E190E00FB632
:10456000F894A895809360000FBE2093600080E0CF
:104570000E94BC070E94A22283B7817F846083BF10
:1045800083B7816083BF7894889583B78E7F83BF1C
:104590000FB6F894A89580916000886180936000C0
:1045A000109260000FBE08950895CF930E94AC044E
:1045B0000E94BF040E94D422C0E08C2F0E942605D6
:1045C000811104C0CF5FCE30C1F701C081E0CF912F
:1045D000089508950C94E9220E942E1B0E94C51490
:1045E0000E94BC070C94EA221F920F920FB60F9202
:1045F00011248F939F93AF93BF938091F502811104
:1046000013C080916E0390916F03A0917003B091DD
:1046100071034196A11DB11D80936E0390936F03AA
:10462000A0937003B0937103BF91AF919F918F914D
:104630000F900FBE0F901F90189582E084BD93E0FD
:1046400095BD9AEF97BD80936E0008952FB7F894AB
:1046500080916E0390916F03A0917003B0917103EC
:104660002FBF0895CF92DF92EF92FF920F931F9387
:104670002FB7F89440916E0350916F0360917003CF
:10468000709171032FBF6A017B01EE24FF248C011E
:1046900020E030E0C016D106E206F30610F44150E7
:1046A00051099A01281B390BC9011F910F91FF90E5
:1046B000EF90DF90CF90089578941F920F920FB6ED
:1046C0000F9211248F939F93AF93BF9380916E03AA
:1046D00090916F03A0917003B09171030196A11D99
:1046E000B11D80936E0390936F03A0937003B093FA
:1046F0007103BF91AF919F918F910F900FBE0F905B
:104700001F901895F89481E08093E00080E28093F8
:10471000D800E9ECF0E010828FE19EE40197F1F718
:1047200000C000001DBA109268001CBC10BE1FBA69
:1047300010927A0010926E0010926F001092710029
:10474000109272001082ECEBF0E0108214B817B8EF
:104750001AB81DB810BA108215B818B81BB81EB810
:1047600011BA0C94003F08950E949821811102C053
:104770000E9412220E94A3218093F4020E94AB2186
:1047800090E090937303809372030E94A721682F97
:1047900070E080E090E00C94091F8091FA0280FFA5
:1047A0000BC060911B0185E0689FB00111247595D5
:1047B0006795759567952BC081FF09C060911B01B6
:1047C00085E0689FB00111247595679520C082FF30
:1047D00007C060911B0185E0689FB001112417C0DC
:1047E0009091F9029923D1F060911A01961788F7F8
:1047F00020911B0185E0289F90011124929FA00128
:10480000939F500D112470E0CA010E94282F603838
:10481000710540F46115710539F002C065E070E082
:10482000862F08958FE7089581E008958091FA0218
:1048300080FF08C06091190170E0759567957595C6
:10484000679521C081FF06C06091190170E07595E0
:10485000679519C082FF04C06091190170E010C013
:104860009091F9029923C1F0609118019617A0F771
:1048700080911901899FC001112470E00E94282FA6
:104880006038710528F46115710521F0862F0895AF
:104890008FE7089581E0089561E070E0F4CF803FF4
:1048A00021F40E94CD23819504C0813F29F40E9408
:1048B000CD238093FE020895823F21F40E94CD23F0
:1048C000819504C0833F29F40E94CD238093FD028B
:1048D0000895893F19F40E94162405C08A3F31F4D7
:1048E0000E94162481958093FF0208958B3F21F446
:1048F0000E941624819504C08C3F29F40E9416243E
:10490000809300030895843F21F48091FC0281602C
:1049100017C0853F21F48091FC02826011C0863F60
:1049200021F48091FC0284600BC0873F21F48091C8
:10493000FC02886005C0883F31F48091FC028061F0
:104940008093FC0208958D3F21F48091FA028160EA
:104950000BC08E3F21F48091FA02826005C08F3F28
:1049600029F48091FA0284608093FA020895803FCE
:1049700039F48091FE0287FF6CC01092FE0269C07C
:10498000813F29F48091FE021816BCF362C0909119
:10499000FD02823F29F497FF5CC01092FD0259C0CE
:1049A000833F19F41916CCF354C0893F41F4809128
:1049B000FF0218160CF04DC01092FF024AC08A3F49
:1049C00029F48091FF0287FF44C0F6CF8B3F39F472
:1049D0008091000387FF3DC0109200033AC08C3FD6
:1049E00029F4809100031816BCF333C0843F21F4EE
:1049F0008091FC028E7F17C0853F21F48091FC02DC
:104A00008D7F11C0863F21F48091FC028B7F0BC00B
:104A1000873F21F48091FC02877F05C0883F31F4F5
:104A20008091FC028F7E8093FC0213C08D3F21F4A5
:104A30008091FA028E7F0BC08E3F21F48091FA02A2
:104A40008D7F05C08F3F29F48091FA028B7F809380
:104A5000FA028091FD0281110EC08091FE02811147
:104A60000AC08091FF02811106C08091000381116C
:104A700002C01092F90208958BEF92E00E94EB14AD
:104A80000E9426239093F8028093F70208951F93C3
:104A9000CF93DF938091F7029091F8020E94322326
:104AA000AC019091F902992321F020911C0130E092
:104AB00006C02091F6028AE0289F90011124421737
:104AC000530708F47BC08091FD02C091FE02D09193
:104AD000FF0210910003811107C0C1116BC0D111F9
:104AE00069C0111167C06AC09F3F19F09F5F909322
:104AF000F902181624F40E94CD238093FD028091C0
:104B0000FD0287FF05C00E94CD2381958093FD02A1
:104B10001C1624F40E94CD238093FE028091FE0295
:104B200087FF05C00E94CD2381958093FE023091BE
:104B3000FD023323E1F02091FE022223C1F045EB78
:104B40003403C0011124892F990F990B009709F4A0
:104B500081E08093FD0235EB2303C0011124892FEE
:104B6000990F990B009709F481E08093FE021D16BE
:104B700024F40E9416248093FF028091FF0287FF95
:104B800005C00E94162481958093FF02111624F41B
:104B90000E941624809300038091000387FF05C0C4
:104BA0000E941624819580930003DF91CF911F917D
:104BB0000C943C259F3F09F099CFA1CFDF91CF9175
:104BC0001F910895EBEFF2E086E0DF011D928A95D8
:104BD000E9F71092F9021092FA020895833081F1F8
:104BE00028F4813059F08230D1F00895853009F4ED
:104BF00049C0B8F1863009F456C008958091F60294
:104C0000262F30E0280F311D2F3F310524F4680F87
:104C10006093F60208958FEF8093F60208958091D5
:104C20001C01262F30E0280F311D2F3F310524F4C1
:104C3000680F60931C0108958FEF80931C01089505
:104C400080911B01262F30E0280F311D2F3F3105A9
:104C500024F4680F60931B0108958FEF80931B016C
:104C6000089580911A01262F30E0280F311D2F3F23
:104C7000310524F4680F60931A0108958FEF809333
:104C80001A01089580911901262F30E0280F311D57
:104C90002F3F310524F4680F6093190108958FEFB9
:104CA00080931901089580911801262F30E0280F74
:104CB000311D2F3F310524F4680F609318010895CA
:104CC0008FEF809318010895833011F128F481301B
:104CD00049F0823091F00895853081F120F18630DD
:104CE000C1F108958091F602681720F4861B809325
:104CF000F60208951092F602089580911C0168173B
:104D000020F4861B80931C01089510921C010895C5
:104D100080911B01681720F4861B80931B01089566
:104D200010921B01089580911A01681720F4861BC8
:104D300080931A01089510921A0108958091190123
:104D4000681720F4861B80931901089510921901A9
:104D5000089580911801681720F4861B809318012C
:104D600008951092180108950F931F93482F50E053
:104D7000FA013597EF33F10508F07FC0EE55FF4F8C
:104D80000C943C2F0E94122271C08091F402817F0A
:104D90008E7F8093F40281E0809302036FC00E94B3
:104DA0002E1B0FEF13ED20E3015010402040E1F7E0
:104DB00000C000000E94822359C08091F402982F05
:104DC0009095917090FB80F98093F40291114EC000
:104DD000897F877F10C08091F40281FB222720F910
:104DE00091E0922790FB81F98093F4029923F1F1ED
:104DF0008091F40281608093F40238C08091F402C3
:104E000082FB222720F991E0922790FB82F9ECCFD8
:104E10008091F40283FB222720F991E0922790FBF6
:104E200083F9E2CF0E942E1B8091720387FB222719
:104E300020F991E0922790FB87F98093720316C0C6
:104E4000895301C08D5141E050E060E070E08A017B
:104E50009B0104C0000F111F221F331F8A95D2F738
:104E6000C901B8010E94091F0E942E1B81E006C0E3
:104E700061E070E080E090E0F5CF80E01F910F915D
:104E8000089580E0089580E008958E518A3030F4CE
:104E9000E82FF0E0EB50FE4F8081089580E0089508
:104EA000CF93C82F80910203813071F018F08230C7
:104EB000E1F184C00E94E520813151F00E94E5209B
:104EC000823209F07DC004C00E94E520813149F49E
:104ED0008C2F0E944127811109C08C2F0E94B4267B
:104EE00022C00E94E520823221F4F2CF81E090E0DE
:104EF0001AC08C2F0E944327811114C0C43179F04D
:104F000048F4CB3079F0C03109F05EC082E0809384
:104F1000020308C0C93219F0C83321F055C01092FD
:104F2000020352C081E0817051C0C93279F108F5A5
:104F3000C43161F1A0F4C73009F044C01092F60208
:104F400084E180931C01C0931B018CE380931A01C0
:104F500088E08093190188E28093180133C082EEC3
:104F60008C0F863078F58C2F0E94452780930103A3
:104F700029C0CE34E9F020F4CB3421F56AE013C027
:104F8000C13579F0C235F1F461E00DC080910103C3
:104F9000882319F01092010315C081E08093020369
:104FA00015C061E006C0809101030E94EE250AC091
:104FB0006AE0809101030E94642604C010920203FB
:104FC00080E004C081E002C080E0ADCFCF910895C1
:104FD0008091230308950F931F93CF93DF9300D005
:104FE0001F92CDB7DEB78C010E945B2A823011F090
:104FF000843021F584E089831B830A8382E08093D7
:10500000E9008FEF9091E800815095FD06C095ED85
:105010009A95F1F700008111F5CF8091E80085FFA6
:105020000DC040E050E063E070E0CE0101960E94C8
:10503000782A8091E8008E778093E8000F900F9097
:105040000F90DF91CF911F910F910895CF93DF9330
:1050500000D01F92CDB7DEB720917803243031F510
:1050600023E02983805891099B838A8382E080937F
:10507000E9008FEF9091E800815095FD06C095ED15
:105080009A95F1F700008111F5CF8091E80085FF36
:105090000DC040E050E063E070E0CE0101960E9458
:1050A000782A8091E8008E778093E8000F900F9027
:1050B0000F90DF91CF910895CF93DF93EC010E9481
:1050C0005B2A823011F08430F9F482E08093E900A9
:1050D0009FEF8091E800915085FD06C085ED8A958F
:1050E000F1F700009111F5CF8091E80085FF0CC029
:1050F00040E050E066E070E0CE010E94782A8091A6
:10510000E8008E778093E800DF91CF910895CF93E8
:10511000DF93EC010E945B2A823011F08430D9F5D4
:1051200080912701882339F08091720387FF03C0A3
:1051300060E282E002C068E081E08093E9008FEFE6
:105140009091E800815095FD06C095ED9A95F1F794
:1051500000008111F5CF8091E80085FF1CC080918F
:105160002701811105C040E050E068E070E003C015
:1051700070E040E050E0CE010E94782A8091E80083
:105180008E778093E80080E2FE01A3E0B3E0019017
:105190000D928A95E1F7DF91CF9108958091770381
:1051A000811109C00E940D2C0E946A2C8091E2009E
:1051B00084608093E2000895109277030895089523
:1051C00008950C94EC2242E061EC81E00E94872B70
:1051D00042E261EC82E00C94872B80917A03833069
:1051E00009F460C030F4813071F0823009F499C064
:1051F00008958A3009F485C08B3009F46BC089307A
:1052000009F0A7C020C080917903813A09F0A1C0BC
:105210008091E800877F8093E80080917D039091E2
:105220007E03892B21F460E283E093E003C060E019
:1052300080E090E070E00E94C32A8091E8008B77C4
:105240008093E800089580917903813209F081C04C
:1052500080917D0390917E03029708F07AC080913F
:10526000E800877F8093E8008091E80082FD05C018
:10527000809178038111F8CF6CC02091F300809168
:10528000F20090E0922B029729F48091F1008B7F3D
:10529000813021F48091F100809323038091E80014
:1052A0008B7753C080917903813A09F052C0809185
:1052B0007D0390917E03892B09F04BC08091E8001B
:1052C000877F8093E8008091E80080FFFCCF809189
:1052D000270136C0809179038132D9F580917D0311
:1052E00090917E03892BA9F58091E800877F8093B8
:1052F000E8000E94BC2B80917B03809327010C94D3
:105300002E1B80917903813221F58091E800877FFF
:105310008093E8000E94BC2B80917C03809324033F
:10532000089580917903813AA1F48091E800877F04
:105330008093E8008091E80080FFFCCF80912403F7
:105340008093F1008091E8008E778093E8000C94C0
:10535000BC2B089584B7877F84BF0FB6F894A895B7
:1053600080916000886180936000109260000FBEA1
:1053700080E880936100109261000E9433150E94C2
:105380000D2C0E946A2C8091E20084608093E200E0
:1053900078940E94F92E0E943B158DE191E00E94C5
:1053A000C01480917803853069F40E94A422809112
:1053B00076038823B1F30E94D522882391F30E94BB
:1053C000622AEFCF0E9445150E94B712EACF0C94D3
:1053D000E929292F332723303105C9F064F421301E
:1053E000310581F02230310509F04CC08BE390E0AB
:1053F0002FE136E04BC02132310521F12232310557
:1054000089F140C082E190E02AE536E03FC099276B
:105410008130910571F02CF4892BA1F5EBE1F6E0D8
:105420000DC08230910541F0039761F5E5EEF5E09E
:1054300005C0E3E0F6E002C0EBEEF5E0849190E019
:105440009F0124C06115710541F061307105D1F4EF
:1054500089E090E02AE436E019C089E090E021E399
:1054600036E014C06115710541F06130710551F4E9
:1054700080EC90E02CE636E009C080E490E02CE27D
:1054800037E004C080E090E020E030E0FA013183B2
:10549000208308950895CF93C82F0E944A2AC0936D
:1054A0002503CF91089580917803843011F081E035
:1054B000089582E0089580912503811102C00C9423
:1054C000532A089580E189BD82E189BD09B400FEB7
:1054D000FDCF8091D8008F7D8093D8008091E0002F
:1054E00082608093E0008091E00081FDFCCF089510
:1054F000CF92DF92EF92FF920F931F93CF93DF93A0
:10550000EC018B016A010E94DB2B811133C0C114B5
:10551000D10439F0F60180819181081B190BC80F65
:10552000D91FE12CF12C0115110519F18091E8002A
:1055300085FD16C08091E8008E778093E800C11445
:10554000D10449F0F60180819181E80EF91EF182C3
:10555000E08285E00FC00E94DB2B882321F30AC084
:1055600089918093F10001501109FFEFEF1AFF0AB2
:10557000DACF80E0DF91CF911F910F91FF90EF90F4
:10558000DF90CF90089520917F03309180032617FC
:10559000370748F06115710539F42091E8002E773E
:1055A0002093E80001C0B90140E061157105A9F13F
:1055B00020917803222309F443C0253009F442C026
:1055C0002091E80023FD40C02091E80022FD32C078
:1055D0002091E80020FFE9CF4091F3002091F200F4
:1055E00030E0342BFC01CF016115710559F02830F2
:1055F000310540F481918093F100615071092F5F72
:105600003F4FF1CF41E02830310509F040E02091D3
:10561000E8002E772093E800C8CF4111C9CF0AC017
:1056200080917803882361F0853061F08091E800F3
:1056300083FD0AC08091E80082FFF2CF80E00895E8
:1056400082E0089583E0089581E0089520917F032A
:10565000309180032617370748F06115710539F43A
:105660002091E8002E772093E80001C0B901FC01E9
:1056700020E06115710591F180917803882309F488
:1056800040C0853009F43FC08091E80083FD3DC0F3
:105690008091E80082FD2FC08091E80080FFE9CF73
:1056A0002091F3008091F20090E0922B611571053A
:1056B00059F08830910540F424912093F1003196FF
:1056C000615071090196F2CF21E0089709F020E0BE
:1056D0008091E8008E778093E800CBCF2111CCCF6A
:1056E0000AC080917803882361F0853061F0809151
:1056F000E80083FD0AC08091E80082FFF2CF80E0DD
:10570000089582E0089583E0089581E00895982F38
:10571000973058F59093E900981739F07091EC00A4
:105720002091ED005091F00003C0242F762F50E01F
:1057300021FF19C03091EB003E7F3093EB00309198
:10574000ED003D7F3093ED003091EB003160309300
:10575000EB007093EC002093ED005093F00020914B
:10576000EE0027FF07C09F5FD3CF8F708093E900C3
:1057700081E0089580E008958091790387FF11C04A
:105780008091E80082FD05C0809178038111F8CFF7
:1057900011C08091E8008B770BC08091780388233B
:1057A00049F08091E80080FFF8CF8091E8008E7783
:1057B0008093E80008952091E4003091E50095E69B
:1057C0004091EC00842F817040FF22C08091E8005E
:1057D00080FD1CC080917803882391F0853091F082
:1057E0008091EB0085FD10C04091E4005091E500F0
:1057F0004217530729F39A01915011F784E0089555
:1058000082E0089583E0089581E0089580E008959E
:105810004091E80042FFDECF08950E947B2C0E9459
:10582000832CE0EEF0E0808181608083E8EDF0E0A1
:1058300080818F77808319BCA7EDB0E08C918E7F3B
:105840008C9380818F7E80831092770308950F93CD
:105850001F93CF93DF930E947B2C0E94832CC8ED73
:10586000D0E088818F778883888180688883888169
:105870008F7D888319BC1092780310927403109264
:1058800076031092750300EE10E0F80180818B7FA3
:10589000808388818160888342E060E080E00E94AC
:1058A000872BE1EEF0E080818E7F8083E2EEF0E0F6
:1058B000808181608083808188608083F80180811D
:1058C0008E7F8083888180618883DF91CF911F9153
:1058D0000F910895E8EDF0E080818F7E8083E7ED01
:1058E000F0E080818160808384E082BF81E08093EA
:1058F00077030C94272CE8EDF0E080818E7F808385
:105900001092E20008951092DA001092E1000895DA
:105910001F920F920FB60F9211242F933F934F9324
:105920005F936F937F938F939F93AF93BF93EF9307
:10593000FF938091E10082FF0BC08091E20082FF23
:1059400007C08091E1008B7F8093E1000E94F82ED8
:105950008091DA0080FF1FC08091D80080FF1BC0BB
:105960008091DA008E7F8093DA008091D90080FFE9
:105970000DC080E189BD82E189BD09B400FEFDCF83
:1059800081E0809378030E94CE2805C019BC109254
:1059900078030E94DC288091E10080FF19C080918B
:1059A000E20080FF15C08091E2008E7F8093E200CC
:1059B0008091E20080618093E2008091D800806253
:1059C0008093D80019BC85E0809378030E94E0287A
:1059D0008091E10084FF30C08091E20084FF2CC000
:1059E00080E189BD82E189BD09B400FEFDCF8091CF
:1059F000D8008F7D8093D8008091E1008F7E8093C6
:105A0000E1008091E2008F7E8093E2008091E200CD
:105A100081608093E20080917403882311F084E018
:105A200007C08091E30087FD02C081E001C083E0F0
:105A3000809378030E94E1288091E10083FF29C0D0
:105A40008091E20083FF25C08091E100877F8093F1
:105A5000E10082E080937803109274038091E1006A
:105A60008E7F8093E1008091E2008E7F8093E20040
:105A70008091E20080618093E20042E060E080E09B
:105A80000E94872B8091F00088608093F0000E9434
:105A9000DF28FF91EF91BF91AF919F918F917F91FF
:105AA0006F915F914F913F912F910F900FBE0F908B
:105AB0001F9018951F920F920FB60F9211242F93DB
:105AC0003F934F935F936F937F938F939F93AF9386
:105AD000BF93CF93DF93EF93FF93C091E900CF7013
